:02000000602876
:10000800F900030EF0000B1921200B185220700E76
:100018008300F90E790E090082073F3406345B34F9
:100028004F3466346D347D3407347F346734773425
:100038007C3439345E34793471340B11F6308100F4
:10004800F10AF20A06118611710882072C28322853
:1000580005080F391020870086153928050E0F3935
:10006800102087000615FF30F100061286120613CD
:1000780072088207412846284B28770810208800F4
:1000880006170800750810208800861608007608EC
:10009800102088000616FF30F20008000B107308C5
:1000A800F4000608F30074185B287318850AF4181E
:1000B8000800F318850308008316031788018901CF
:1000C80083160313850187018801860106148614A7
:1000D8008113811281110115811401148B178B165C
:1000E8008B151614961483128501860187018801E1
:1000F800F101F201F63081000508F800842080281B
:100108008B13F601F501F70164307802031C8F2880
:10011800F800F60A88280A307802031C9628F800A6
:0C012800F50A8F287808F7008B170800F4
:04400E00D420FF3F7C
:00000001FF
