:060000000A128A11132907
:10000800F000030EF1000B195A218C184B210C1823
:0C0018005121710E8300F00E700E0900E3
:100200008A010A1482073F3406345B344F34663463
:100210006D347D3407347F34673477347C3439343B
:100220005E347934713447211921731474217B2190
:100230001629031783168801890103138316870182
:10024000880109100C148C14F430920003138312EB
:100250008701880189018C100C10101490109011E6
:10026000101290161013921412159215121692165F
:1002700012170313831681128111011081100115C9
:10028000031383160F178F120F120F1408008B170A
:100290008B160B170800031383128C109101890A27
:1002A000080003138312DC308E000B308F000C101B
:1002B000F20A080003138312AA3081000B1188018F
:1002C000091C662973186E29F3186829870108002C
:1002D000740887008814F3107314080075088700E9
:1002E00008147310F314080072080F39F600720E28
:1002F0000F39F700080076080021F4007708002184
:04030000F5000800FC
:04400E00C430FF3F7C
:00000001FF
